:03000000020156A4
:0C015600787FE4F6D8FD7581160200EBFE
:1000EB00D2B2D288D2A8D2AFD2B27F0A7E0012018E
:1000FB0044E50AB401FBE4F50AE50E24E2601124A1
:10010B00FE701AC2B57FE87E03120144D2B580E1BE
:10011B00C2B47FE87E03120144D2B480D4D2B5D2EC
:03012B00B480CECF
:03000300020006F2
:10000600C0E0C0F0C083C082C0D075D000C000C0C0
:0D00160001C002C003C004C005C006C00741
:10002300751400C2A87F0F12012E30B205D2A802A8
:1000330000D020B2077F0112012E80F675120075E1
:10004300130030B2077F0112012E80F620B2077F22
:100053000112012E80F630B2127F0112012E051417
:10006300E514C3941E40EFD2A88062740B2512F8E6
:10007300C000E625E0D000F6E514C39408400974F7
:100083000B2512F8E64401F67514000513E513C3B6
:10009300940840AE0512E512C3940440A2E50BB4E4
:1000A300800BE50CB40F06E50D64046009750E00C2
:1000B300D2A8B2B48017750A01E51175F010A4AE89
:0D00C300F07C002510F509EC3EF508D2A8F0
:1000D000D007D006D005D004D003D002D001D00084
:0B00E000D0D0D082D083D0F0D0E0322E
:06012E00EFD39400400F26
:0C01340075150275169FD516FDD515FA3D
:040140001F80EB220F
:10014400EFD39400400B7E0C7DA9DDFEDEFC1F8006
:01015400EFBB
:010155002287
:00000001FF
