:03000000020130CA
:0C013000787FE4F6D8FD7581150200E52B
:1000E500D2B2D288D2A8D2AFD2B27F0A7E00120194
:1000F5001EE508700AE50924F47004D2B580F2C241
:03010500B580EED4
:03000300020006F2
:10000600C0E0C0F0C083C082C0D075D000C000C0C0
:0D00160001C002C003C004C005C006C00741
:10002300751300C2A87F0F12010830B205D2A802CF
:1000330000CA20B2077F0112010880F6751100750E
:10004300120030B2077F0112010880F620B2077F49
:100053000112010880F630B2127F01120108051364
:10006300E513C3941E40EFD2A8805C740A2511F8EF
:10007300C000E6C313D000F6E513C3940840097427
:100083000A2511F8E64480F67513000512E512C33C
:10009300940840AE0511E511C3940440A2E50DF4A4
:1000A300650C6004D2A8801FE50C540FF50FE50C16
:1000B300C4540FF51075F010A4AEF07C00250FF5B5
:0700C30009EC3EF508D2A88C
:1000CA00D007D006D005D004D003D002D001D0008A
:0B00DA00D0D0D082D083D0F0D0E03234
:06010800EFD39400400F4C
:0C010E0075140275159FD515FDD514FA67
:04011A001F80EB2235
:10011E00EFD39400400B7E0C7DA9DDFEDEFC1F802C
:01012E00EFE1
:01012F0022AD
:00000001FF
