:03000000020950A2
:0C095000787FE4F6D8FD7581160208D30C
:1008D300D2B2D288D2A8D2AFD2B27F0A7E00120996
:1008E3003EE50AB401FBE4F50AE50E24D0601524C5
:1008F300F0601A24F0601D24307020C2B412093A4B
:10090300D2B480DDC2B312093AD2B380D4C2B112D9
:10091300093AD2B1D2B012093AC2B0D2B4D2B3803A
:01092300C013
:03000300020800F0
:10080000C0E0C0F0C083C082C0D075D000C000C0BE
:0D08100001C002C003C004C005C006C0073F
:10081D00751400C2A87F0F12092430B205D2A802A8
:10082D0008B820B2077F0112092480F675120075F1
:10083D00130030B2077F0112092480F620B2077F22
:10084D000112092480F630B2127F01120924051419
:10085D00E514C3941E40EFD2A88050740B2512F8F6
:10086D00C000E625E0D000F6E514C39408400974F5
:10087D000B2512F8E64401F67514000513E513C3B4
:10088D00940840AE0512E512C3940440A2E50BB4E2
:10089D00800BE50CB40F06E50D64046009750E00C0
:0B08AD00D2A8B2B38005750A01D2A8E2
:1008B800D007D006D005D004D003D002D001D00094
:0B08C800D0D0D082D083D0F0D0E0323E
:06092400EFD39400400F28
:0C092A0075150275169FD516FDD515FA3F
:040936001F80EB2211
:04093A007FE87E03D1
:10093E00EFD39400400B7E0C7DA9DDFEDEFC1F8004
:01094E00EFB9
:01094F002285
:00000001FF
