:03000000020A0CE5
:0C0A0C00787FE4F6D8FD758120020920F7
:0409B1007FF47E0150
:1009B500D3EF9400EE9400401100007D0C7CA9DC7F
:0A09C500FEDDFCEF1F70E91E80E666
:0109CF002205
:10097100E4F513F51430B00930B20630B40320B1F8
:100981002E7F327E001209B520B00630B0FDD201B3
:100991002220B20720B218D20280F920B40720B475
:0F09A1000ED20380F920B10720B104D20480F9EF
:0109B0002224
:1008CE00E4FF750B00750C2BD205E4F509F50AD281
:1008DE008CC3E50A950CE509950B40F5C28CE50D28
:1008EE0030E708750B00750C828006750B00750CD1
:1008FE002BC205E4F509F50AD28CC3E50A950CE581
:10090E0009950B40F5C28CE50D25E0F50D0FBF08DE
:01091E00B127
:01091F0022B5
:10080000E4F513750B02750CB2D205F509F50AD2A1
:100810008CC3E50A950CE509950B40F5C28C750B68
:1008200001750C54C205E4F509F50AD28CC3E50A3A
:10083000950CE509950B40F5C28C850F0D1208CE7D
:1008400085100D1208CE85110D1208CE85120D12DD
:1008500008CE750B00750C22D205E4F509F50AD215
:100860008CC3E50A950CE509950B40F5C28CC2B521
:100870007F177E001209B5750B02750CB2D205E424
:10088000F509F50AD28CC3E50A950CE509950B40EC
:10089000F5C28C750B00750CAAC205E4F509F50AC2
:1008A000D28CC3E50A950CE509950B40F5C28C7511
:1008B0000B00750C32D205E4F509F50AD28CC3E5BC
:0D08C0000A950CE509950B40F5C28CD2B5E8
:0108CD002208
:1009D000438E805389F0758A64758CFFC28DD28CEA
:0E09E000D2A9D2AF750F8075100F75110422C9
:100920001209D0E4F508F509F50AC205C20012095A
:100930007130010D7512201208001209B1C2018038
:10094000ED30020D7512301208001209B1C202809A
:10095000DD30030D7512401208001209B1C2038088
:10096000CD3004CA7513501208001209B1C20480B8
:01097000BDC9
:03000B000209EEF9
:1009EE00C0E0C0D0050AE50A70020509300504B260
:0E09FE00008002C200A20092B5D0D0D0E0323C
:00000001FF
