:030000000201C139
:0C01C100787FE4F6D8FD75812002012E45
:10018F00D3EF9400EE9400401100007D0C7CA9DCAD
:0A019F00FEDDFCEF1F70E91E80E694
:0101A9002233
:1001AA00E4F513F51420B20E7F32FE12018F20B24D
:0601BA000530B2FDD20089
:0101C000221C
:1000DC00E4FF750B00750C2BD202E4F509F50AD27E
:1000EC008CC3E50A950CE509950B40F5C28CE50D22
:1000FC0030E708750B00750C828006750B00750CCB
:10010C002BC202E4F509F50AD28CC3E50A950CE57D
:10011C0009950B40F5C28CE50D25E0F50D0FBF08D8
:01012C00B121
:01012D0022AF
:10000E00E4F513750B02750CB2D202F509F50AD29E
:10001E008CC3E50A950CE509950B40F5C28C750B62
:10002E0001750C54C202E4F509F50AD28CC3E50A37
:10003E00950CE509950B40F5C28C850F0D1200DC71
:10004E0085100D1200DC85110D1200DC85120D12CB
:10005E0000DC750B00750C22D202E4F509F50AD20C
:10006E008CC3E50A950CE509950B40F5C28CC2B51B
:10007E007F177E0012018F750B02750CB2D202E44F
:10008E00F509F50AD28CC3E50A950CE509950B40E6
:10009E00F5C28C750B00750CAAC202E4F509F50ABF
:1000AE00D28CC3E50A950CE509950B40F5C28C750B
:1000BE000B00750C32D202E4F509F50AD28CC3E5B9
:0D00CE000A950CE509950B40F5C28CD2B5E2
:0100DB002202
:10015300438E805389F0758A64758CFFC28DD28C6F
:0E016300D2A9D2AF750F8075100F751104224E
:10012E00120153E4F508F509F50AC202C2011201E3
:10013E00AA3000FA75122012000E7FF47E01120111
:05014E008FC20080E9F2
:03000B000201717E
:10017100C0E0C0D0050AE50A70020509300204B2E8
:0E018100018002C201A20192B5D0D0D0E032BE
:00000001FF
