:030000000201BC3E
:0C01BC00787FE4F6D8FD75812002013246
:10017500D3EF9400EE9400401100007D0C7CA9DCC7
:0A018500FEDDFCEF1F70E91E80E6AE
:01018F00224D
:10019000E4F510F51120B20E7F32FE12017520B287
:0601A0000530B2FDD200A3
:0101A6002236
:1000E000E4FF750B00750C2BD202E4F509F50AD27A
:1000F0008CC3E50A950CE509950B40F5C28CE50D1E
:1001000030E708750B00750C828006750B00750CC6
:100110002BC202E4F509F50AD28CC3E50A950CE579
:1001200009950B40F5C28CE50D25E0F50D0FBF08D4
:01013000B11D
:0101310022AB
:10000E00E4F510750B02750CB2D202F509F50AD2A1
:10001E008CC3E50A950CE509950B40F5C28C750B62
:10002E0001750C54C202E4F509F50AD28CC3E50A37
:10003E00950CE509950B40F5C28C85080D1200E074
:10004E00E508F4F50D1200E0850F0D1200E0E50F46
:10005E00F4F50D1200E0750B00750C22D202E4F5DA
:10006E0009F50AD28CC3E50A950CE509950B40F506
:10007E00C28CC2B57F177E00120175750B02750C0E
:10008E00B2D202E4F509F50AD28CC3E50A950CE565
:10009E0009950B40F5C28C750B00750CAAC202E4D3
:1000AE00F509F50AD28CC3E50A950CE509950B40C6
:1000BE00F5C28C750B00750C32D202E4F509F50A07
:1000CE00D28CC3E50A950CE509950B40F5C28CD28E
:0100DE00B56C
:0100DF0022FE
:1001A700438E805389F0758A64758CFFC28DD28C1B
:0501B700D2A9D2AF2225
:100132001201A7E4F508F509F50AC202C20112018B
:10014200903000FA750F3012000E7FF47E0112011A
:0501520075C20080E908
:03000B0002015798
:10015700C0E0C0D0050AE50A70020509300204B202
:0E016700018002C201A20192B5D0D0D0E032D8
:00000001FF
